{
  "contractName": "StudentEventPlannerBallot",
  "abi": [
    {
      "constant": true,
      "inputs": [
        {
          "name": "",
          "type": "uint256"
        }
      ],
      "name": "events",
      "outputs": [
        {
          "name": "id",
          "type": "uint256"
        },
        {
          "name": "name",
          "type": "string"
        },
        {
          "name": "categoryId",
          "type": "uint256"
        },
        {
          "name": "voteCount",
          "type": "uint256"
        }
      ],
      "payable": false,
      "stateMutability": "view",
      "type": "function"
    },
    {
      "constant": true,
      "inputs": [],
      "name": "monthCount",
      "outputs": [
        {
          "name": "",
          "type": "uint256"
        }
      ],
      "payable": false,
      "stateMutability": "view",
      "type": "function"
    },
    {
      "constant": true,
      "inputs": [
        {
          "name": "",
          "type": "uint256"
        }
      ],
      "name": "months",
      "outputs": [
        {
          "name": "id",
          "type": "uint256"
        },
        {
          "name": "monthNumber",
          "type": "uint256"
        },
        {
          "name": "voteCount",
          "type": "uint256"
        }
      ],
      "payable": false,
      "stateMutability": "view",
      "type": "function"
    },
    {
      "constant": true,
      "inputs": [],
      "name": "categoryCount",
      "outputs": [
        {
          "name": "",
          "type": "uint256"
        }
      ],
      "payable": false,
      "stateMutability": "view",
      "type": "function"
    },
    {
      "constant": true,
      "inputs": [],
      "name": "eventCount",
      "outputs": [
        {
          "name": "",
          "type": "uint256"
        }
      ],
      "payable": false,
      "stateMutability": "view",
      "type": "function"
    },
    {
      "constant": true,
      "inputs": [
        {
          "name": "",
          "type": "uint256"
        }
      ],
      "name": "categories",
      "outputs": [
        {
          "name": "id",
          "type": "uint256"
        },
        {
          "name": "name",
          "type": "string"
        }
      ],
      "payable": false,
      "stateMutability": "view",
      "type": "function"
    },
    {
      "inputs": [],
      "payable": false,
      "stateMutability": "nonpayable",
      "type": "constructor"
    },
    {
      "constant": true,
      "inputs": [
        {
          "name": "_categoryId",
          "type": "uint256"
        }
      ],
      "name": "getCategoryName",
      "outputs": [
        {
          "name": "_categoryName",
          "type": "string"
        }
      ],
      "payable": false,
      "stateMutability": "view",
      "type": "function"
    },
    {
      "constant": false,
      "inputs": [
        {
          "name": "_name",
          "type": "string"
        }
      ],
      "name": "addCategory",
      "outputs": [],
      "payable": false,
      "stateMutability": "nonpayable",
      "type": "function"
    },
    {
      "constant": false,
      "inputs": [
        {
          "name": "_name",
          "type": "string"
        },
        {
          "name": "_categoryId",
          "type": "uint256"
        }
      ],
      "name": "addEvent",
      "outputs": [],
      "payable": false,
      "stateMutability": "nonpayable",
      "type": "function"
    },
    {
      "constant": false,
      "inputs": [
        {
          "name": "_monthNumber",
          "type": "uint256"
        }
      ],
      "name": "addMonth",
      "outputs": [],
      "payable": false,
      "stateMutability": "nonpayable",
      "type": "function"
    },
    {
      "constant": false,
      "inputs": [
        {
          "name": "_eventId",
          "type": "uint256"
        }
      ],
      "name": "voteEvent",
      "outputs": [],
      "payable": false,
      "stateMutability": "nonpayable",
      "type": "function"
    },
    {
      "constant": false,
      "inputs": [
        {
          "name": "_monthId",
          "type": "uint256"
        }
      ],
      "name": "voteMonth",
      "outputs": [],
      "payable": false,
      "stateMutability": "nonpayable",
      "type": "function"
    },
    {
      "constant": true,
      "inputs": [],
      "name": "getTotalCategoryCount",
      "outputs": [
        {
          "name": "_categoryCount",
          "type": "uint256"
        }
      ],
      "payable": false,
      "stateMutability": "view",
      "type": "function"
    },
    {
      "constant": true,
      "inputs": [
        {
          "name": "_categoryId",
          "type": "uint256"
        }
      ],
      "name": "requestWinningEvent",
      "outputs": [
        {
          "name": "topVotedEvent",
          "type": "string"
        }
      ],
      "payable": false,
      "stateMutability": "view",
      "type": "function"
    },
    {
      "constant": true,
      "inputs": [],
      "name": "requestWinningMonth",
      "outputs": [
        {
          "name": "_monthNumber",
          "type": "uint256"
        }
      ],
      "payable": false,
      "stateMutability": "view",
      "type": "function"
    }
  ],
  "bytecode": "0x608060405234801561001057600080fd5b50336000806101000a81548173ffffffffffffffffffffffffffffffffffffffff021916908373ffffffffffffffffffffffffffffffffffffffff160217905550611876806100606000396000f3fe608060405234801561001057600080fd5b50600436106100f55760003560e01c806364b7534011610097578063bdf57bcb11610066578063bdf57bcb1461046a578063c6cdbe5e14610488578063d1656c1714610536578063f0e1691a146105dd576100f5565b806364b75340146103d257806371be2e4a146103f057806372a972661461040e578063a247b6791461043c576100f5565b80632b231f2a116100d35780632b231f2a146102245780632be32dbb146102cb5780632e0dcbf7146102e9578063614c0808146103a4576100f5565b80630b791430146100fa5780630d4e57a4146101b65780631d0205b8146101d4575b600080fd5b6101266004803603602081101561011057600080fd5b81019080803590602001909291905050506106a2565b6040518085815260200180602001848152602001838152602001828103825285818151815260200191508051906020019080838360005b8381101561017857808201518184015260208101905061015d565b50505050905090810190601f1680156101a55780820380516001836020036101000a031916815260200191505b509550505050505060405180910390f35b6101be61076a565b6040518082815260200191505060405180910390f35b610200600480360360208110156101ea57600080fd5b8101908080359060200190929190505050610770565b60405180848152602001838152602001828152602001935050505060405180910390f35b6102506004803603602081101561023a57600080fd5b810190808035906020019092919050505061079a565b6040518080602001828103825283818151815260200191508051906020019080838360005b83811015610290578082015181840152602081019050610275565b50505050905090810190601f1680156102bd5780820380516001836020036101000a031916815260200191505b509250505060405180910390f35b6102d3610a22565b6040518082815260200191505060405180910390f35b6103a2600480360360208110156102ff57600080fd5b810190808035906020019064010000000081111561031c57600080fd5b82018360208201111561032e57600080fd5b8035906020019184600183028401116401000000008311171561035057600080fd5b91908080601f016020809104026020016040519081016040528093929190818152602001838380828437600081840152601f19601f820116905080830192505050505050509192919290505050610a28565b005b6103d0600480360360208110156103ba57600080fd5b8101908080359060200190929190505050610b55565b005b6103da610d05565b6040518082815260200191505060405180910390f35b6103f8610e4c565b6040518082815260200191505060405180910390f35b61043a6004803603602081101561042457600080fd5b8101908080359060200190929190505050610e52565b005b6104686004803603602081101561045257600080fd5b8101908080359060200190929190505050610ffc565b005b6104726111f4565b6040518082815260200191505060405180910390f35b6104b46004803603602081101561049e57600080fd5b81019080803590602001909291905050506112c0565b6040518083815260200180602001828103825283818151815260200191508051906020019080838360005b838110156104fa5780820151818401526020810190506104df565b50505050905090810190601f1680156105275780820380516001836020036101000a031916815260200191505b50935050505060405180910390f35b6105626004803603602081101561054c57600080fd5b810190808035906020019092919050505061137c565b6040518080602001828103825283818151815260200191508051906020019080838360005b838110156105a2578082015181840152602081019050610587565b50505050905090810190601f1680156105cf5780820380516001836020036101000a031916815260200191505b509250505060405180910390f35b6106a0600480360360408110156105f357600080fd5b810190808035906020019064010000000081111561061057600080fd5b82018360208201111561062257600080fd5b8035906020019184600183028401116401000000008311171561064457600080fd5b91908080601f016020809104026020016040519081016040528093929190818152602001838380828437600081840152601f19601f8201169050808301925050505050505091929192908035906020019092919050505061157c565b005b6002602052806000526040600020600091509050806000015490806001018054600181600116156101000203166002900480601f0160208091040260200160405190810160405280929190818152602001828054600181600116156101000203166002900480156107545780601f1061072957610100808354040283529160200191610754565b820191906000526020600020905b81548152906001019060200180831161073757829003601f168201915b5050505050908060020154908060030154905084565b60085481565b60036020528060005260406000206000915090508060000154908060010154908060020154905083565b6060816000811180156107af57506006548111155b610821576040517f08c379a00000000000000000000000000000000000000000000000000000000081526004018080602001828103825260158152602001807f43617465676f7279206973206e6f742076616c6964000000000000000000000081525060200191505060405180910390fd5b6000809054906101000a900473ffffffffffffffffffffffffffffffffffffffff1673ffffffffffffffffffffffffffffffffffffffff163373ffffffffffffffffffffffffffffffffffffffff16146108e3576040517f08c379a00000000000000000000000000000000000000000000000000000000081526004018080602001828103825260178152602001807f55736572206973206e6f74204368616972706572736f6e00000000000000000081525060200191505060405180910390fd5b60008090506000600190505b6007548111610a0f578460026000838152602001908152602001600020600201541480156109325750816002600083815260200190815260200160002060030154115b15610a025760026000828152602001908152602001600020600301549150600260008281526020019081526020016000206001018054600181600116156101000203166002900480601f0160208091040260200160405190810160405280929190818152602001828054600181600116156101000203166002900480156109fa5780601f106109cf576101008083540402835291602001916109fa565b820191906000526020600020905b8154815290600101906020018083116109dd57829003601f168201915b505050505093505b80806001019150506108ef565b506001811015610a1b57fe5b5050919050565b60065481565b6000809054906101000a900473ffffffffffffffffffffffffffffffffffffffff1673ffffffffffffffffffffffffffffffffffffffff163373ffffffffffffffffffffffffffffffffffffffff1614610aea576040517f08c379a00000000000000000000000000000000000000000000000000000000081526004018080602001828103825260178152602001807f55736572206973206e6f74204368616972706572736f6e00000000000000000081525060200191505060405180910390fd5b6006600081548092919060010191905055506040518060400160405280600654815260200182815250600160006006548152602001908152602001600020600082015181600001556020820151816001019080519060200190610b4e929190611751565b5090505050565b6000809054906101000a900473ffffffffffffffffffffffffffffffffffffffff1673ffffffffffffffffffffffffffffffffffffffff163373ffffffffffffffffffffffffffffffffffffffff1614610c17576040517f08c379a00000000000000000000000000000000000000000000000000000000081526004018080602001828103825260178152602001807f55736572206973206e6f74204368616972706572736f6e00000000000000000081525060200191505060405180910390fd5b80600081118015610c295750600c8111155b610c9b576040517f08c379a00000000000000000000000000000000000000000000000000000000081526004018080602001828103825260108152602001807f4d6f6e746820697320696e76616c69640000000000000000000000000000000081525060200191505060405180910390fd5b6008600081548092919060010191905055506040518060600160405280600854815260200183815260200160008152506003600060085481526020019081526020016000206000820151816000015560208201518160010155604082015181600201559050505050565b60008060009054906101000a900473ffffffffffffffffffffffffffffffffffffffff1673ffffffffffffffffffffffffffffffffffffffff163373ffffffffffffffffffffffffffffffffffffffff1614610dc9576040517f08c379a00000000000000000000000000000000000000000000000000000000081526004018080602001828103825260178152602001807f55736572206973206e6f74204368616972706572736f6e00000000000000000081525060200191505060405180910390fd5b60008090506000600190505b6008548111610e3c578160036000838152602001908152602001600020600201541115610e2f5760036000828152602001908152602001600020600201549150600360008281526020019081526020016000206001015492505b8080600101915050610dd5565b506001811015610e4857fe5b5090565b60075481565b80600081118015610e6557506008548111155b610ed7576040517f08c379a00000000000000000000000000000000000000000000000000000000081526004018080602001828103825260168152602001807f566f746564206d6f6e746820697320696e76616c69640000000000000000000081525060200191505060405180910390fd5b600560003373ffffffffffffffffffffffffffffffffffffffff1673ffffffffffffffffffffffffffffffffffffffff16815260200190815260200160002060009054906101000a900460ff1615610f7a576040517f08c379a000000000000000000000000000000000000000000000000000000000815260040180806020018281038252602181526020018061182a6021913960400191505060405180910390fd5b6001600560003373ffffffffffffffffffffffffffffffffffffffff1673ffffffffffffffffffffffffffffffffffffffff16815260200190815260200160002060006101000a81548160ff02191690831515021790555060036000838152602001908152602001600020600201600081548092919060010191905055505050565b8060008111801561100f57506007548111155b611081576040517f08c379a00000000000000000000000000000000000000000000000000000000081526004018080602001828103825260158152602001807f4576656e74204944206973206e6f742076616c6964000000000000000000000081525060200191505060405180910390fd5b600460006002600085815260200190815260200160002060020154815260200190815260200160002060003373ffffffffffffffffffffffffffffffffffffffff1673ffffffffffffffffffffffffffffffffffffffff16815260200190815260200160002060009054906101000a900460ff161561114b576040517f08c379a00000000000000000000000000000000000000000000000000000000081526004018080602001828103825260338152602001806117f76033913960400191505060405180910390fd5b6001600460006002600086815260200190815260200160002060020154815260200190815260200160002060003373ffffffffffffffffffffffffffffffffffffffff1673ffffffffffffffffffffffffffffffffffffffff16815260200190815260200160002060006101000a81548160ff02191690831515021790555060026000838152602001908152602001600020600301600081548092919060010191905055505050565b60008060009054906101000a900473ffffffffffffffffffffffffffffffffffffffff1673ffffffffffffffffffffffffffffffffffffffff163373ffffffffffffffffffffffffffffffffffffffff16146112b8576040517f08c379a00000000000000000000000000000000000000000000000000000000081526004018080602001828103825260178152602001807f55736572206973206e6f74204368616972706572736f6e00000000000000000081525060200191505060405180910390fd5b600654905090565b6001602052806000526040600020600091509050806000015490806001018054600181600116156101000203166002900480601f0160208091040260200160405190810160405280929190818152602001828054600181600116156101000203166002900480156113725780601f1061134757610100808354040283529160200191611372565b820191906000526020600020905b81548152906001019060200180831161135557829003601f168201915b5050505050905082565b60606000809054906101000a900473ffffffffffffffffffffffffffffffffffffffff1673ffffffffffffffffffffffffffffffffffffffff163373ffffffffffffffffffffffffffffffffffffffff1614611440576040517f08c379a00000000000000000000000000000000000000000000000000000000081526004018080602001828103825260178152602001807f55736572206973206e6f74204368616972706572736f6e00000000000000000081525060200191505060405180910390fd5b8160008111801561145357506006548111155b6114c5576040517f08c379a00000000000000000000000000000000000000000000000000000000081526004018080602001828103825260158152602001807f43617465676f7279206973206e6f742076616c6964000000000000000000000081525060200191505060405180910390fd5b600160008481526020019081526020016000206001018054600181600116156101000203166002900480601f01602080910402602001604051908101604052809291908181526020018280546001816001161561010002031660029004801561156f5780601f106115445761010080835404028352916020019161156f565b820191906000526020600020905b81548152906001019060200180831161155257829003601f168201915b5050505050915050919050565b6000809054906101000a900473ffffffffffffffffffffffffffffffffffffffff1673ffffffffffffffffffffffffffffffffffffffff163373ffffffffffffffffffffffffffffffffffffffff161461163e576040517f08c379a00000000000000000000000000000000000000000000000000000000081526004018080602001828103825260178152602001807f55736572206973206e6f74204368616972706572736f6e00000000000000000081525060200191505060405180910390fd5b8060008111801561165157506006548111155b6116c3576040517f08c379a00000000000000000000000000000000000000000000000000000000081526004018080602001828103825260158152602001807f43617465676f7279206973206e6f742076616c6964000000000000000000000081525060200191505060405180910390fd5b600760008154809291906001019190505550604051806080016040528060075481526020018481526020018381526020016000815250600260006007548152602001908152602001600020600082015181600001556020820151816001019080519060200190611734929190611751565b506040820151816002015560608201518160030155905050505050565b828054600181600116156101000203166002900490600052602060002090601f016020900481019282601f1061179257805160ff19168380011785556117c0565b828001600101855582156117c0579182015b828111156117bf5782518255916020019190600101906117a4565b5b5090506117cd91906117d1565b5090565b6117f391905b808211156117ef5760008160009055506001016117d7565b5090565b9056fe557365722068617320616c72656164792073656c656374656420616e206576656e7420696e20746869732063617465676f7279557365722068617320616c72656164792073656c65637465642061206d6f6e7468a165627a7a723058206bd8cb27448e74d55895de31bc74bdfc28db1dc6a8c293b82d17608bea7b606e0029",
  "source": "pragma solidity ^0.5.2;\r\n\r\ncontract StudentEventPlannerBallot {\r\n    struct Category {\r\n        uint id;\r\n        string name;\r\n    }\r\n    struct Event {\r\n        uint id;\r\n        string name;\r\n        uint categoryId;\r\n        uint voteCount;\r\n    }\r\n    struct Month {\r\n        uint id;\r\n        uint monthNumber;\r\n        uint voteCount;\r\n    }\r\n    address chairperson;\r\n    mapping(uint => Category) public categories;\r\n    mapping(uint => Event) public events;\r\n    mapping(uint => Month) public months;\r\n    mapping(uint => mapping(address => bool)) hasVoted;\r\n    mapping(address => bool) hasSelectedMonth;\r\n    uint public categoryCount;\r\n    uint public eventCount;\r\n    uint public monthCount;\r\n    // Modifiers\r\n    modifier onlyChairperson(){\r\n        require(msg.sender == chairperson, \"User is not Chairperson\");\r\n        _;\r\n    }\r\n    // To check if a valid category ID is being passed\r\n    modifier validCategory(uint _categoryId){\r\n        require(_categoryId > 0 && _categoryId <= categoryCount, \"Category is not valid\");\r\n        _;\r\n    }\r\n    // To check if event ID is valid\r\n    modifier validEvent(uint _eventId){\r\n        require(_eventId > 0 && _eventId <= eventCount, \"Event ID is not valid\");\r\n        _;\r\n    }\r\n\r\n    modifier validMonth(uint _monthNumber){\r\n        require(_monthNumber > 0 && _monthNumber <= 12, \"Month is invalid\");\r\n        _;\r\n    }\r\n    modifier validMonthVote(uint _monthId) {\r\n        require(_monthId > 0 && _monthId <= monthCount, \"Voted month is invalid\");\r\n        _;\r\n    }\r\n    constructor() public {\r\n        // Saving the address of the chairperson\r\n        chairperson = msg.sender;\r\n    }\r\n    // Only chairperson can view the category names based on their ID. This helps the chairperson in adding new events to the appropriate categories\r\n    function getCategoryName(uint _categoryId) public onlyChairperson validCategory(_categoryId) view returns (string memory _categoryName) {\r\n        _categoryName = categories[_categoryId].name;\r\n    }\r\n    // Only a chairperson can add a new category\r\n    function addCategory(string memory _name) public onlyChairperson {\r\n        categoryCount ++;\r\n        categories[categoryCount] = Category(categoryCount, _name);\r\n    }\r\n    // Only a chairperson can add a new event\r\n    function addEvent(string memory _name, uint  _categoryId) public onlyChairperson validCategory(_categoryId) {\r\n        eventCount ++;\r\n        events[eventCount] = Event(eventCount, _name, _categoryId, 0);\r\n    }\r\n    function addMonth(uint _monthNumber) public onlyChairperson validMonth(_monthNumber){\r\n        monthCount ++;\r\n        months[monthCount] = Month(monthCount, _monthNumber, 0);\r\n    }\r\n\r\n    function voteEvent(uint _eventId) public validEvent(_eventId) {\r\n        // Check to see if the user has already voted under the category\r\n        require(!hasVoted[events[_eventId].categoryId][msg.sender], \"User has already selected an event in this category\");\r\n        hasVoted[events[_eventId].categoryId][msg.sender] = true;\r\n        events[_eventId].voteCount ++;\r\n    }\r\n\r\n    function voteMonth(uint _monthId) public validMonthVote(_monthId) {\r\n        require(!hasSelectedMonth[msg.sender], \"User has already selected a month\");\r\n        hasSelectedMonth[msg.sender] = true;\r\n        months[_monthId].voteCount ++;\r\n    }\r\n    // Used to find winners under all the categories\r\n    function getTotalCategoryCount() public onlyChairperson view returns (uint _categoryCount) {\r\n        _categoryCount = categoryCount;\r\n    }\r\n    // Winner for the categoryID passed OR winner for each category??? Can this function be called multiple times with different category IDs?\r\n    function requestWinningEvent(uint _categoryId) public view validCategory(_categoryId) onlyChairperson returns (string memory topVotedEvent) {\r\n        uint maxVotes = 0;\r\n        for(uint eventId = 1; eventId <= eventCount; eventId ++){\r\n            if(events[eventId].categoryId == _categoryId && events[eventId].voteCount > maxVotes){\r\n                maxVotes = events[eventId].voteCount;\r\n                topVotedEvent = events[eventId].name;\r\n            }\r\n        }\r\n        assert(maxVotes >= 1);\r\n    }\r\n\r\n    function requestWinningMonth() public view onlyChairperson returns (uint _monthNumber) {\r\n        uint maxVotes = 0;\r\n        for(uint monthId = 1; monthId <= monthCount; monthId ++){\r\n            if(months[monthId].voteCount > maxVotes) {\r\n                maxVotes = months[monthId].voteCount;\r\n                _monthNumber = months[monthId].monthNumber;\r\n            }\r\n        }\r\n        assert(maxVotes >= 1);\r\n    }\r\n}",
  "sourcePath": "D:/First Semester/Blockchain/SEP-Dapp/SEP-contract/contracts/StudentEventPlannerBallot.sol",
  "compiler": {
    "name": "solc",
    "version": "0.5.8+commit.23d335f2.Emscripten.clang"
  },
  "schemaVersion": "3.0.16",
  "updatedAt": "2019-11-16T00:27:50.203Z",
  "devdoc": {
    "methods": {}
  },
  "userdoc": {
    "methods": {}
  }
}