{
  "contractName": "StudentEventPlannerBallot",
  "abi": [
    {
      "constant": true,
      "inputs": [
        {
          "name": "",
          "type": "uint256"
        }
      ],
      "name": "events",
      "outputs": [
        {
          "name": "id",
          "type": "uint256"
        },
        {
          "name": "name",
          "type": "string"
        },
        {
          "name": "categoryId",
          "type": "uint256"
        },
        {
          "name": "voteCount",
          "type": "uint256"
        }
      ],
      "payable": false,
      "stateMutability": "view",
      "type": "function"
    },
    {
      "constant": true,
      "inputs": [],
      "name": "monthCount",
      "outputs": [
        {
          "name": "",
          "type": "uint256"
        }
      ],
      "payable": false,
      "stateMutability": "view",
      "type": "function"
    },
    {
      "constant": true,
      "inputs": [
        {
          "name": "",
          "type": "uint256"
        }
      ],
      "name": "months",
      "outputs": [
        {
          "name": "id",
          "type": "uint256"
        },
        {
          "name": "monthNumber",
          "type": "uint256"
        },
        {
          "name": "voteCount",
          "type": "uint256"
        }
      ],
      "payable": false,
      "stateMutability": "view",
      "type": "function"
    },
    {
      "constant": true,
      "inputs": [],
      "name": "categoryCount",
      "outputs": [
        {
          "name": "",
          "type": "uint256"
        }
      ],
      "payable": false,
      "stateMutability": "view",
      "type": "function"
    },
    {
      "constant": true,
      "inputs": [
        {
          "name": "",
          "type": "uint256"
        },
        {
          "name": "",
          "type": "address"
        }
      ],
      "name": "hasVoted",
      "outputs": [
        {
          "name": "",
          "type": "bool"
        }
      ],
      "payable": false,
      "stateMutability": "view",
      "type": "function"
    },
    {
      "constant": true,
      "inputs": [],
      "name": "eventCount",
      "outputs": [
        {
          "name": "",
          "type": "uint256"
        }
      ],
      "payable": false,
      "stateMutability": "view",
      "type": "function"
    },
    {
      "constant": true,
      "inputs": [
        {
          "name": "",
          "type": "uint256"
        }
      ],
      "name": "categories",
      "outputs": [
        {
          "name": "id",
          "type": "uint256"
        },
        {
          "name": "name",
          "type": "string"
        }
      ],
      "payable": false,
      "stateMutability": "view",
      "type": "function"
    },
    {
      "inputs": [],
      "payable": false,
      "stateMutability": "nonpayable",
      "type": "constructor"
    },
    {
      "constant": true,
      "inputs": [
        {
          "name": "_categoryId",
          "type": "uint256"
        }
      ],
      "name": "getCategoryName",
      "outputs": [
        {
          "name": "_categoryName",
          "type": "string"
        }
      ],
      "payable": false,
      "stateMutability": "view",
      "type": "function"
    },
    {
      "constant": false,
      "inputs": [
        {
          "name": "_name",
          "type": "string"
        }
      ],
      "name": "addCategory",
      "outputs": [],
      "payable": false,
      "stateMutability": "nonpayable",
      "type": "function"
    },
    {
      "constant": false,
      "inputs": [
        {
          "name": "_name",
          "type": "string"
        },
        {
          "name": "_categoryId",
          "type": "uint256"
        }
      ],
      "name": "addEvent",
      "outputs": [],
      "payable": false,
      "stateMutability": "nonpayable",
      "type": "function"
    },
    {
      "constant": false,
      "inputs": [
        {
          "name": "_monthNumber",
          "type": "uint256"
        }
      ],
      "name": "addMonth",
      "outputs": [],
      "payable": false,
      "stateMutability": "nonpayable",
      "type": "function"
    },
    {
      "constant": false,
      "inputs": [
        {
          "name": "_eventId",
          "type": "uint256[]"
        }
      ],
      "name": "voteEvent",
      "outputs": [],
      "payable": false,
      "stateMutability": "nonpayable",
      "type": "function"
    },
    {
      "constant": false,
      "inputs": [
        {
          "name": "_monthId",
          "type": "uint256"
        }
      ],
      "name": "voteMonth",
      "outputs": [],
      "payable": false,
      "stateMutability": "nonpayable",
      "type": "function"
    },
    {
      "constant": true,
      "inputs": [],
      "name": "getTotalCategoryCount",
      "outputs": [
        {
          "name": "_categoryCount",
          "type": "uint256"
        }
      ],
      "payable": false,
      "stateMutability": "view",
      "type": "function"
    },
    {
      "constant": true,
      "inputs": [
        {
          "name": "_categoryId",
          "type": "uint256"
        }
      ],
      "name": "requestWinningEvent",
      "outputs": [
        {
          "name": "topVotedEvent",
          "type": "string"
        }
      ],
      "payable": false,
      "stateMutability": "view",
      "type": "function"
    },
    {
      "constant": true,
      "inputs": [],
      "name": "requestWinningMonth",
      "outputs": [
        {
          "name": "_monthNumber",
          "type": "uint256"
        }
      ],
      "payable": false,
      "stateMutability": "view",
      "type": "function"
    }
  ],
  "bytecode": "0x608060405234801561001057600080fd5b50336000806101000a81548173ffffffffffffffffffffffffffffffffffffffff021916908373ffffffffffffffffffffffffffffffffffffffff160217905550611a39806100606000396000f3fe608060405234801561001057600080fd5b50600436106101005760003560e01c806364b7534011610097578063c6cdbe5e11610066578063c6cdbe5e146104cb578063c8e2b5af14610579578063d1656c1714610631578063f0e1691a146106d857610100565b806364b753401461044357806371be2e4a1461046157806372a972661461047f578063bdf57bcb146104ad57610100565b80632be32dbb116100d35780632be32dbb146102d65780632e0dcbf7146102f457806343859632146103af578063614c08081461041557610100565b80630b791430146101055780630d4e57a4146101c15780631d0205b8146101df5780632b231f2a1461022f575b600080fd5b6101316004803603602081101561011b57600080fd5b810190808035906020019092919050505061079d565b6040518085815260200180602001848152602001838152602001828103825285818151815260200191508051906020019080838360005b83811015610183578082015181840152602081019050610168565b50505050905090810190601f1680156101b05780820380516001836020036101000a031916815260200191505b509550505050505060405180910390f35b6101c9610865565b6040518082815260200191505060405180910390f35b61020b600480360360208110156101f557600080fd5b810190808035906020019092919050505061086b565b60405180848152602001838152602001828152602001935050505060405180910390f35b61025b6004803603602081101561024557600080fd5b8101908080359060200190929190505050610895565b6040518080602001828103825283818151815260200191508051906020019080838360005b8381101561029b578082015181840152602081019050610280565b50505050905090810190601f1680156102c85780820380516001836020036101000a031916815260200191505b509250505060405180910390f35b6102de610b1d565b6040518082815260200191505060405180910390f35b6103ad6004803603602081101561030a57600080fd5b810190808035906020019064010000000081111561032757600080fd5b82018360208201111561033957600080fd5b8035906020019184600183028401116401000000008311171561035b57600080fd5b91908080601f016020809104026020016040519081016040528093929190818152602001838380828437600081840152601f19601f820116905080830192505050505050509192919290505050610b23565b005b6103fb600480360360408110156103c557600080fd5b8101908080359060200190929190803573ffffffffffffffffffffffffffffffffffffffff169060200190929190505050610c50565b604051808215151515815260200191505060405180910390f35b6104416004803603602081101561042b57600080fd5b8101908080359060200190929190505050610c7f565b005b61044b610e2f565b6040518082815260200191505060405180910390f35b610469610f76565b6040518082815260200191505060405180910390f35b6104ab6004803603602081101561049557600080fd5b8101908080359060200190929190505050610f7c565b005b6104b5611126565b6040518082815260200191505060405180910390f35b6104f7600480360360208110156104e157600080fd5b81019080803590602001909291905050506111f2565b6040518083815260200180602001828103825283818151815260200191508051906020019080838360005b8381101561053d578082015181840152602081019050610522565b50505050905090810190601f16801561056a5780820380516001836020036101000a031916815260200191505b50935050505060405180910390f35b61062f6004803603602081101561058f57600080fd5b81019080803590602001906401000000008111156105ac57600080fd5b8201836020820111156105be57600080fd5b803590602001918460208302840111640100000000831117156105e057600080fd5b919080806020026020016040519081016040528093929190818152602001838360200280828437600081840152601f19601f8201169050808301925050505050505091929192905050506112ae565b005b61065d6004803603602081101561064757600080fd5b810190808035906020019092919050505061153f565b6040518080602001828103825283818151815260200191508051906020019080838360005b8381101561069d578082015181840152602081019050610682565b50505050905090810190601f1680156106ca5780820380516001836020036101000a031916815260200191505b509250505060405180910390f35b61079b600480360360408110156106ee57600080fd5b810190808035906020019064010000000081111561070b57600080fd5b82018360208201111561071d57600080fd5b8035906020019184600183028401116401000000008311171561073f57600080fd5b91908080601f016020809104026020016040519081016040528093929190818152602001838380828437600081840152601f19601f8201169050808301925050505050505091929192908035906020019092919050505061173f565b005b6002602052806000526040600020600091509050806000015490806001018054600181600116156101000203166002900480601f01602080910402602001604051908101604052809291908181526020018280546001816001161561010002031660029004801561084f5780601f106108245761010080835404028352916020019161084f565b820191906000526020600020905b81548152906001019060200180831161083257829003601f168201915b5050505050908060020154908060030154905084565b60085481565b60036020528060005260406000206000915090508060000154908060010154908060020154905083565b6060816000811180156108aa57506006548111155b61091c576040517f08c379a00000000000000000000000000000000000000000000000000000000081526004018080602001828103825260158152602001807f43617465676f7279206973206e6f742076616c6964000000000000000000000081525060200191505060405180910390fd5b6000809054906101000a900473ffffffffffffffffffffffffffffffffffffffff1673ffffffffffffffffffffffffffffffffffffffff163373ffffffffffffffffffffffffffffffffffffffff16146109de576040517f08c379a00000000000000000000000000000000000000000000000000000000081526004018080602001828103825260178152602001807f55736572206973206e6f74204368616972706572736f6e00000000000000000081525060200191505060405180910390fd5b60008090506000600190505b6007548111610b0a57846002600083815260200190815260200160002060020154148015610a2d5750816002600083815260200190815260200160002060030154115b15610afd5760026000828152602001908152602001600020600301549150600260008281526020019081526020016000206001018054600181600116156101000203166002900480601f016020809104026020016040519081016040528092919081815260200182805460018160011615610100020316600290048015610af55780601f10610aca57610100808354040283529160200191610af5565b820191906000526020600020905b815481529060010190602001808311610ad857829003601f168201915b505050505093505b80806001019150506109ea565b506001811015610b1657fe5b5050919050565b60065481565b6000809054906101000a900473ffffffffffffffffffffffffffffffffffffffff1673ffffffffffffffffffffffffffffffffffffffff163373ffffffffffffffffffffffffffffffffffffffff1614610be5576040517f08c379a00000000000000000000000000000000000000000000000000000000081526004018080602001828103825260178152602001807f55736572206973206e6f74204368616972706572736f6e00000000000000000081525060200191505060405180910390fd5b6006600081548092919060010191905055506040518060400160405280600654815260200182815250600160006006548152602001908152602001600020600082015181600001556020820151816001019080519060200190610c49929190611914565b5090505050565b60046020528160005260406000206020528060005260406000206000915091509054906101000a900460ff1681565b6000809054906101000a900473ffffffffffffffffffffffffffffffffffffffff1673ffffffffffffffffffffffffffffffffffffffff163373ffffffffffffffffffffffffffffffffffffffff1614610d41576040517f08c379a00000000000000000000000000000000000000000000000000000000081526004018080602001828103825260178152602001807f55736572206973206e6f74204368616972706572736f6e00000000000000000081525060200191505060405180910390fd5b80600081118015610d535750600c8111155b610dc5576040517f08c379a00000000000000000000000000000000000000000000000000000000081526004018080602001828103825260108152602001807f4d6f6e746820697320696e76616c69640000000000000000000000000000000081525060200191505060405180910390fd5b6008600081548092919060010191905055506040518060600160405280600854815260200183815260200160008152506003600060085481526020019081526020016000206000820151816000015560208201518160010155604082015181600201559050505050565b60008060009054906101000a900473ffffffffffffffffffffffffffffffffffffffff1673ffffffffffffffffffffffffffffffffffffffff163373ffffffffffffffffffffffffffffffffffffffff1614610ef3576040517f08c379a00000000000000000000000000000000000000000000000000000000081526004018080602001828103825260178152602001807f55736572206973206e6f74204368616972706572736f6e00000000000000000081525060200191505060405180910390fd5b60008090506000600190505b6008548111610f66578160036000838152602001908152602001600020600201541115610f595760036000828152602001908152602001600020600201549150600360008281526020019081526020016000206001015492505b8080600101915050610eff565b506001811015610f7257fe5b5090565b60075481565b80600081118015610f8f57506008548111155b611001576040517f08c379a00000000000000000000000000000000000000000000000000000000081526004018080602001828103825260168152602001807f566f746564206d6f6e746820697320696e76616c69640000000000000000000081525060200191505060405180910390fd5b600560003373ffffffffffffffffffffffffffffffffffffffff1673ffffffffffffffffffffffffffffffffffffffff16815260200190815260200160002060009054906101000a900460ff16156110a4576040517f08c379a00000000000000000000000000000000000000000000000000000000081526004018080602001828103825260218152602001806119ed6021913960400191505060405180910390fd5b6001600560003373ffffffffffffffffffffffffffffffffffffffff1673ffffffffffffffffffffffffffffffffffffffff16815260200190815260200160002060006101000a81548160ff02191690831515021790555060036000838152602001908152602001600020600201600081548092919060010191905055505050565b60008060009054906101000a900473ffffffffffffffffffffffffffffffffffffffff1673ffffffffffffffffffffffffffffffffffffffff163373ffffffffffffffffffffffffffffffffffffffff16146111ea576040517f08c379a00000000000000000000000000000000000000000000000000000000081526004018080602001828103825260178152602001807f55736572206973206e6f74204368616972706572736f6e00000000000000000081525060200191505060405180910390fd5b600654905090565b6001602052806000526040600020600091509050806000015490806001018054600181600116156101000203166002900480601f0160208091040260200160405190810160405280929190818152602001828054600181600116156101000203166002900480156112a45780601f10611279576101008083540402835291602001916112a4565b820191906000526020600020905b81548152906001019060200180831161128757829003601f168201915b5050505050905082565b8060008090505b81518110156113755760008282815181106112cc57fe5b60200260200101511180156112f657506007548282815181106112eb57fe5b602002602001015111155b611368576040517f08c379a00000000000000000000000000000000000000000000000000000000081526004018080602001828103825260158152602001807f4576656e74204944206973206e6f742076616c6964000000000000000000000081525060200191505060405180910390fd5b80806001019150506112b5565b5060008090505b825181101561153a57600460006002600086858151811061139957fe5b6020026020010151815260200190815260200160002060020154815260200190815260200160002060003373ffffffffffffffffffffffffffffffffffffffff1673ffffffffffffffffffffffffffffffffffffffff16815260200190815260200160002060009054906101000a900460ff1615611462576040517f08c379a00000000000000000000000000000000000000000000000000000000081526004018080602001828103825260338152602001806119ba6033913960400191505060405180910390fd5b6001600460006002600087868151811061147857fe5b6020026020010151815260200190815260200160002060020154815260200190815260200160002060003373ffffffffffffffffffffffffffffffffffffffff1673ffffffffffffffffffffffffffffffffffffffff16815260200190815260200160002060006101000a81548160ff0219169083151502179055506002600084838151811061150457fe5b6020026020010151815260200190815260200160002060030160008154809291906001019190505550808060010191505061137c565b505050565b60606000809054906101000a900473ffffffffffffffffffffffffffffffffffffffff1673ffffffffffffffffffffffffffffffffffffffff163373ffffffffffffffffffffffffffffffffffffffff1614611603576040517f08c379a00000000000000000000000000000000000000000000000000000000081526004018080602001828103825260178152602001807f55736572206973206e6f74204368616972706572736f6e00000000000000000081525060200191505060405180910390fd5b8160008111801561161657506006548111155b611688576040517f08c379a00000000000000000000000000000000000000000000000000000000081526004018080602001828103825260158152602001807f43617465676f7279206973206e6f742076616c6964000000000000000000000081525060200191505060405180910390fd5b600160008481526020019081526020016000206001018054600181600116156101000203166002900480601f0160208091040260200160405190810160405280929190818152602001828054600181600116156101000203166002900480156117325780601f1061170757610100808354040283529160200191611732565b820191906000526020600020905b81548152906001019060200180831161171557829003601f168201915b5050505050915050919050565b6000809054906101000a900473ffffffffffffffffffffffffffffffffffffffff1673ffffffffffffffffffffffffffffffffffffffff163373ffffffffffffffffffffffffffffffffffffffff1614611801576040517f08c379a00000000000000000000000000000000000000000000000000000000081526004018080602001828103825260178152602001807f55736572206973206e6f74204368616972706572736f6e00000000000000000081525060200191505060405180910390fd5b8060008111801561181457506006548111155b611886576040517f08c379a00000000000000000000000000000000000000000000000000000000081526004018080602001828103825260158152602001807f43617465676f7279206973206e6f742076616c6964000000000000000000000081525060200191505060405180910390fd5b6007600081548092919060010191905055506040518060800160405280600754815260200184815260200183815260200160008152506002600060075481526020019081526020016000206000820151816000015560208201518160010190805190602001906118f7929190611914565b506040820151816002015560608201518160030155905050505050565b828054600181600116156101000203166002900490600052602060002090601f016020900481019282601f1061195557805160ff1916838001178555611983565b82800160010185558215611983579182015b82811115611982578251825591602001919060010190611967565b5b5090506119909190611994565b5090565b6119b691905b808211156119b257600081600090555060010161199a565b5090565b9056fe557365722068617320616c72656164792073656c656374656420616e206576656e7420696e20746869732063617465676f7279557365722068617320616c72656164792073656c65637465642061206d6f6e7468a165627a7a72305820f7a8307111085903fec8fbfa8d325e0052ce4a33427f702895b9ff17d5bfb0ec0029",
  "source": "pragma solidity ^0.5.2;\r\n\r\ncontract StudentEventPlannerBallot {\r\n    struct Category {\r\n        uint id;\r\n        string name;\r\n    }\r\n    struct Event {\r\n        uint id;\r\n        string name;\r\n        uint categoryId;\r\n        uint voteCount;\r\n    }\r\n    struct Month {\r\n        uint id;\r\n        uint monthNumber;\r\n        uint voteCount;\r\n    }\r\n    address chairperson;\r\n    mapping(uint => Category) public categories;\r\n    mapping(uint => Event) public events;\r\n    mapping(uint => Month) public months;\r\n    mapping(uint => mapping(address => bool)) public hasVoted;\r\n    mapping(address => bool) hasSelectedMonth;\r\n    uint public categoryCount;\r\n    uint public eventCount;\r\n    uint public monthCount;\r\n    // Modifiers\r\n    modifier onlyChairperson(){\r\n        require(msg.sender == chairperson, \"User is not Chairperson\");\r\n        _;\r\n    }\r\n    // To check if a valid category ID is being passed\r\n    modifier validCategory(uint _categoryId){\r\n        require(_categoryId > 0 && _categoryId <= categoryCount, \"Category is not valid\");\r\n        _;\r\n    }\r\n    // To check if event ID is valid\r\n    // modifier validEvent(uint _eventId){\r\n    //     require(_eventId > 0 && _eventId <= eventCount, \"Event ID is not valid\");\r\n    //     _;\r\n    // }\r\n    modifier validEvent(uint[] memory _eventId){\r\n        for(uint index = 0; index < _eventId.length; index++){\r\n            require(_eventId[index] > 0 && _eventId[index] <= eventCount, \"Event ID is not valid\");\r\n        }\r\n        _;\r\n    }\r\n    modifier validMonth(uint _monthNumber){\r\n        require(_monthNumber > 0 && _monthNumber <= 12, \"Month is invalid\");\r\n        _;\r\n    }\r\n    modifier validMonthVote(uint _monthId) {\r\n        require(_monthId > 0 && _monthId <= monthCount, \"Voted month is invalid\");\r\n        _;\r\n    }\r\n    constructor() public {\r\n        // Saving the address of the chairperson\r\n        chairperson = msg.sender;\r\n    }\r\n    // Only chairperson can view the category names based on their ID. This helps the chairperson in adding new events to the appropriate categories\r\n    function getCategoryName(uint _categoryId) public onlyChairperson validCategory(_categoryId) view returns (string memory _categoryName) {\r\n        _categoryName = categories[_categoryId].name;\r\n    }\r\n    // Only a chairperson can add a new category\r\n    function addCategory(string memory _name) public onlyChairperson {\r\n        categoryCount ++;\r\n        categories[categoryCount] = Category(categoryCount, _name);\r\n    }\r\n    // Only a chairperson can add a new event\r\n    function addEvent(string memory _name, uint  _categoryId) public onlyChairperson validCategory(_categoryId) {\r\n        eventCount ++;\r\n        events[eventCount] = Event(eventCount, _name, _categoryId, 0);\r\n    }\r\n    function addMonth(uint _monthNumber) public onlyChairperson validMonth(_monthNumber){\r\n        monthCount ++;\r\n        months[monthCount] = Month(monthCount, _monthNumber, 0);\r\n    }\r\n    // function voteEvent(uint _eventId) public validEvent(_eventId) {\r\n    //     // Check to see if the user has already voted under the category\r\n    //     require(!hasVoted[events[_eventId].categoryId][msg.sender], \"User has already selected an event in this category\");\r\n    //     hasVoted[events[_eventId].categoryId][msg.sender] = true;\r\n    //     events[_eventId].voteCount ++;\r\n    // }\r\n    function voteEvent(uint[] memory _eventId) public validEvent(_eventId) {\r\n        // Check to see if the user has already voted under the category\r\n        for(uint index = 0; index < _eventId.length; index++){\r\n            require(!hasVoted[events[_eventId[index]].categoryId][msg.sender], \"User has already selected an event in this category\");\r\n            hasVoted[events[_eventId[index]].categoryId][msg.sender] = true;\r\n            events[_eventId[index]].voteCount ++;\r\n        }\r\n    }\r\n    function voteMonth(uint _monthId) public validMonthVote(_monthId) {\r\n        require(!hasSelectedMonth[msg.sender], \"User has already selected a month\");\r\n        hasSelectedMonth[msg.sender] = true;\r\n        months[_monthId].voteCount ++;\r\n    }\r\n    // Used to find winners under all the categories\r\n    function getTotalCategoryCount() public onlyChairperson view returns (uint _categoryCount) {\r\n        _categoryCount = categoryCount;\r\n    }\r\n    // Winner for the categoryID passed OR winner for each category??? Can this function be called multiple times with different category IDs?\r\n    function requestWinningEvent(uint _categoryId) public view validCategory(_categoryId) onlyChairperson returns (string memory topVotedEvent) {\r\n        uint maxVotes = 0;\r\n        for(uint eventId = 1; eventId <= eventCount; eventId ++){\r\n            if(events[eventId].categoryId == _categoryId && events[eventId].voteCount > maxVotes){\r\n                maxVotes = events[eventId].voteCount;\r\n                topVotedEvent = events[eventId].name;\r\n            }\r\n        }\r\n        assert(maxVotes >= 1);\r\n    }\r\n    function requestWinningMonth() public view onlyChairperson returns (uint _monthNumber) {\r\n        uint maxVotes = 0;\r\n        for(uint monthId = 1; monthId <= monthCount; monthId ++){\r\n            if(months[monthId].voteCount > maxVotes) {\r\n                maxVotes = months[monthId].voteCount;\r\n                _monthNumber = months[monthId].monthNumber;\r\n            }\r\n        }\r\n        assert(maxVotes >= 1);\r\n    }\r\n}",
  "sourcePath": "D:/First Semester/Blockchain/SEP-Dapp/SEP-contract/contracts/StudentEventPlannerBallot.sol",
  "compiler": {
    "name": "solc",
    "version": "0.5.8+commit.23d335f2.Emscripten.clang"
  },
  "schemaVersion": "3.0.16",
  "updatedAt": "2019-11-12T21:44:58.027Z",
  "devdoc": {
    "methods": {}
  },
  "userdoc": {
    "methods": {}
  }
}